:020000040800F2
:100000002007002055020008A9130008A1130008CA
:10001000A51300084D040008751400080000000036
:10002000000000000000000000000000B113000804
:100030005D04000800000000AD130008B5130008BF
:100040006F0200086F0200086F0200086F020008CC
:100050006F0200086F0200086F0200086F020008BC
:100060006F0200086F0200086F0200086F020008AC
:100070006F0200086F0200086F0200086F0200089C
:100080006F0200086F0200086F0200086F0200088C
:100090006F0200086F0200086F0200086F0200087C
:1000A0006F0200086F0200086F0200086F0200086C
:1000B0006F0200086F0200086F0200086F0200085C
:1000C0006F0200086F0200086F0200086F0200084C
:1000D0006F0200086F0200086F0200086F0200083C
:1000E0006F0200086F0200086F0200086F0200082C
:1000F0006F0200086F0200086F0200086F0200081C
:100100006F0200086F0200086F0200086F0200080B
:100110006F0200086F0200086F0200086F020008FB
:10012000510400086F0200086F0200086F02000807
:100130006F0200086F0200086F0200086F020008DB
:100140006F0200086F0200086F0200086F020008CB
:100150006F0200086F0200086F0200086F020008BB
:100160006F0200086F0200086F0200086F020008AB
:100170006F0200086F0200086F0200080000000014
:100180006F0200086F02000800F002F800F052F859
:1001900014A696E8000CB244B344DA4501D100F04D
:1001A00049F8BAE80F000FA696E83000A5EB040561
:1001B00004EB0607AAEB0704A7F101074FEA1515A0
:1001C0004FEA3414A4F10104AC4201D300F032F838
:1001D00013F0010F18BFFB1A43F0010300F001F800
:1001E000DBE718478C130000AC130000103A24BF63
:1001F00078C878C1FAD8520724BF30C830C144BF8C
:1002000004680C6070470000704700000023002461
:1002100000250026103A28BF78C1FBD8520728BF16
:1002200030C148BF0B6070471FB501F088F91FBD92
:1002300010B510BD00F0D0F81146FFF7F5FF01F042
:100240001BF900F0EEF803B4FFF7F2FF03BC00F077
:10025000F5F800000948804709480047FEE7FEE737
:10026000FEE7FEE7FEE7FEE7FEE7FEE7FEE7FEE766
:1002700004480549054A064B704700006114000810
:100280008901000820010020200700202003002011
:100290002003002053EA020C00F069802DE9F04BA6
:1002A0004FF00006002B1FBFB3FA83F503FA05F4E5
:1002B00024FA05F65E4012BF1643B2FA82F502FA3E
:1002C00005F4C5F120051EBF22FA05FC44EA0C0422
:1002D000203556EA044C4FEA144418BF641C4FF012
:1002E00000084FF00009904271EB030C39D300294C
:1002F00019BFB1FA81F701FA07F6B0FA80F700FAF0
:1003000007F6C7F120071EBF20FA07FC46EA0C06D5
:100310002037B6FBF4FCA7EB0507103F07F01F0BD7
:10032000CBF120062CFA06F60CFA0BFB44BFB346C1
:100330000026202FA4BF5E464FF0000B5BEA060CA0
:1003400008BF4FF0010B19EB0B0948EB0608ABFB9C
:10035000027C06FB02CC0BFB03CCC01B71EB0C0137
:10036000C1E70B46024641464846BDE8F08B13B54F
:10037000084318BF4FF0FF300146AFF30080BDE8DF
:100380001C4070474FF0000200B513469446964655
:10039000203922BFA0E80C50A0E80C50B1F1200198
:1003A000BFF4F7AF090728BFA0E80C5048BF0CC046
:1003B0005DF804EB890028BF40F8042B08BF7047A4
:1003C00048BF20F8022B11F0804F18BF00F8012B16
:1003D0007047704770477047754600F02BF8AE467F
:1003E00005006946534620F00700854618B020B541
:1003F000FFF73EFFBDE820404FF000064FF000073A
:100400004FF000084FF0000BAC46ACE8C009ACE878
:10041000C009ACE8C009ACE8C00921F007018D466D
:10042000704710B50446AFF300802046BDE8104089
:10043000FFF709BF0048704710000020014918204D
:10044000ABBEFEE72600020070470000FEE700009A
:1004500040F2B800C2F2000000F0ACB970470000F2
:1004600072B600BFFEE7000070B581B000220092B6
:1004700090F83C20012A03D1022001B070BD00BFDA
:10048000D1F800E00122BEF10A0F1FFA8EFC80F8BD
:100490003C2009D34FEA4C02036812FA8EF2A2F113
:1004A0001E0403F10C0204E003680EEB4E0403F19A
:1004B000100207251668A54026EA050515608D6817
:1004C000166805FA04F4344314604968062907D80D
:1004D00001EB81014A1F194651F8345F0FE000BF5C
:1004E0000C2901EB810105D8A1F12302194651F82D
:1004F000305F04E0A1F14102194651F82C5F1F243E
:10050000944025EA04040C600CFA02F20C6842F2F2
:10051000043CC4F2010C2243ACF54174A3420A60CE
:100520003ED1BEF1120F07D1DCF8001041F480017A
:10053000CCF8001034E000BF2EF0010110292FD1BB
:10054000DCF80010BEF1100F41F40001CCF80010EF
:1005500026D140F20801C2F2000109684DF683621B
:10056000C4F21B32A1FB0212910C01EB8101490084
:1005700000910099A1B1009901390091009979B1D8
:10058000009901390091009951B100990139009108
:10059000009929B100990139009100990029EAD107
:1005A000002180F83C10002001B070BD002804BF7D
:1005B0000120704710B5016C00293DD0016CC906BF
:1005C00045D4016C41F202129143023142F20432ED
:1005D0000164C4F20102116821F440311160136812
:1005E00090E812102343D0F810E013604A68012409
:1005F00022F480724A604A68C0F6007442EA0E2211
:100600004A604A6822F040724A604A6842EA0C0234
:100610004A608A6822F400628A60C2688B681A4362
:100620008A60826A8B68A24223F070638B608B6859
:1006300010D123F0405216E0044600F065F8204641
:100640000021616484F83C10016CC906B9D5012110
:1006500053E000BF1A438A608A6822F040528A60E1
:10066000C26A8B681A438A608A6822F002028A6032
:100670008A68037E90F8204042EA43028A604A6812
:1006800084B142F400624A604A684EF2000322F4E8
:1006900060424A60426ACFF6FF734C6803EB423215
:1006A000224301E022F400624A60CA6A40F2000C70
:1006B00022F47002CA62C3694269CFF6F07CCC6A48
:1006C0000CEB03532343CB628B6823F400738B60E2
:1006D00090F830308C6844EA43238B608B6823F4B5
:1006E00080638B608B6843EA82228A6000214164C8
:1006F000026C012363F301020264002280F83C20B3
:10070000BDE810400846704770B586B0044642F216
:1007100000002168C4F20100002681420596CDE95F
:1007200003660296019601D006B070BD43F6300113
:100730000096C4F202014A6900F5604042F48072FA
:100740004A614A6902F480720092009A00960A682F
:1007500042F001020A60096801F00101009100996C
:10076000012101910321CDE9021601A900F0B6F99A
:1007700040F2B80546F21040C2F20005C4F2020091
:100780004FF48061C5E9000605F110004FF40062E6
:100790004FF400534EC02846C5E90266C5E9086615
:1007A00000F0EAF8002818BFFFF75AFEA563AC6313
:1007B00006B070BDF0B581B00021009140F2080193
:1007C000C2F200010B68D0E9166148F2B51537682E
:1007D0000822C1F64E358A403A42A3FB05350CD0BB
:1007E00003681C68640708D51C6824F004041C60B6
:1007F000B260426D42F00102426501228A403A42F3
:1008000008D003685B691B0604D5B260426D42F0F4
:100810000202426504228A403A4208D003681B68FB
:100820009B0704D5B260426D42F00402426510227B
:100830008A403A4219D001680B681B0715D5B2608F
:100840000B680A685B0309D4D20509D40A6822F050
:1008500008020A60016C29B907E000BF110341D406
:10086000016C11B1044688472046C26D202101FA6F
:1008700002F33B4243D001680F68FF063FD5B360E7
:1008800090F835700B68052F1CD123F016030B6010
:100890004B6923F080034B61036C0BB9836C1BB174
:1008A0000B6823F008030B603F219140B1600121E8
:1008B00080F83510016D0022002980F8342054D1D1
:1008C00058E000BF0A685B0310D4D20512D40A684E
:1008D00022F010020A60012180F83510002180F812
:1008E000341007E0816C0029BCD1BEE7110301D4AC
:1008F000416C00E0C16B11B1044688472046416D50
:10090000C1B3416DC9072ED0052180F835100168AB
:10091000AA0A0B6823F001030B60009B013393428A
:1009200000931AD80B68DB0717D0009B0133934262
:10093000009312D80B68DB070FD0009B0133934262
:1009400000930AD80B68DB0707D0009B0133934262
:10095000009302D80B68DB07DFD1012180F8351046
:10096000002180F83410C16C21B101B0BDE8F04025
:10097000084700BF01B0F0BD2DE9F041044600F08A
:100980007DF9ECB10546022084F83500002021688D
:1009900084F83400086820F00100086021680868C5
:1009A000C00711D000F06AF9401B0528F6D90325CD
:1009B00020230320636584F83550BDE8F08100BF33
:1009C0000120BDE8F08100BF086848F23F02CFF285
:1009D0001002D4E9013500EA020C04F10C0898E891
:1009E000C10143EA0C032B431843D4E9072E3043DB
:1009F00038431043626A40EA0E00042A40EA0803C2
:100A00001CD1206BD4E90A2E40EA0E00184308607E
:100A10004869BEF1000F20F0030040EA020040F0F8
:100A2000040C11D0B8F5005F36D0B8F1000F45D1F5
:100A3000022A46D0012A3BD032B942E00B60486915
:100A400020F0070040EA020C01F0F8004AF6AB2261
:100A50001038CAF6AA22A0FB02231A0941F26853F1
:100A6000C1F814C0C0F600039A5C40F2FF335F285F
:100A70004FF03F0021EA030100FA02F088BF043181
:100A8000C4E916128860002301250020636584F8FC
:100A90003550BDE8F08100BF032AD5D80125402399
:100AA0000120DFE802F0030E030500BF82E700BF6C
:100AB000AEF1C070B0FA80F0400904E0032A04D31C
:100AC000C2D1CEF300600028BED001254023012012
:100AD000636584F83550BDE8F08100002DE9F04FE2
:100AE00083B000F1200200F13E4741F6004500923C
:100AF00007F1FF77C4F2020508224FEAB726A842A1
:100B000008BF072200254FF000084FF00009072E0C
:100B100038BF4FEAB72201920AE000BF09F101098C
:100B200008F10208B9F1100F05F1040500F0A280E8
:100B30000F68012202FA09FE17EA0E0AEED0D1F878
:100B400004C003220CF003077E1E02FA08F4012EF3
:100B50006FEA040B12D88468CE6804EA0B0406FA24
:100B600008F634438460446824EA0E06CCF300148B
:100B700004FA09F42643466004E000BF032F01D1C4
:100B800003271EE0C6688C6806EA0B0604FA08F420
:100B90002643022FC66014D16FF00302009E02EAC2
:100BA000590756F807C005F01C040F220B69A24034
:100BB0002CEA0202A3401A43F251D1F804C00CF00F
:100BC0000307026807FA08F302EA0B021A431CF44F
:100BD000403F0260A2D0002243F644030292C4F2D6
:100BE00002031A6843F6004442F480421A601A680D
:100BF000C4F2010402F480420292029A29F0030234
:100C00004FF6084C2244CFF6FF7C52F80C3005F02A
:100C10000C070F26BE40B343019E06FA07F73B437D
:100C200042F80C30A2684B6842EA0A0743F60C4CC3
:100C3000DE0258BF22EA0A07A760C4F2010CDCF802
:100C400000209E0242EA0A0758BF22EA0A07CCF8AF
:100C5000007062689E0342EA0A0758BF22EA0A0748
:100C600067602268DB0342EA0A0758BF22EA0A07E4
:100C7000276053E703B0BDE8F08F000040F2181082
:100C8000C2F200000068704740F2000040F2181104
:100C9000C2F20000C2F2000100780A681044086045
:100CA0007047000080B543F60040C4F202000168BE
:100CB00041F400710160016841F4806101600168E4
:100CC00041F480710160032000F086F80F2000F0ED
:100CD00005F800F027F8002080BD000070B540F254
:100CE0000006C2F2000640F208013278C2F20001AA
:100CF0004FF47A730968B3FBF2F20446B1FBF2F1E8
:100D0000084600F037FB0F2C4FF0010508D838B922
:100D10004FF0FF3021460022002500F031F87460CA
:100D2000284670BD82B0002043F640010190C4F215
:100D300002014A6842F480424A604A6802F48042F2
:100D40000192019A0090086840F08050086008689D
:100D500000F080500090009802B07047002848BF13
:100D6000704700F01F01012202FA01F11C2202EA81
:100D7000D0004EF20012CEF2000281507047000007
:100D800010B54EF60C5CCEF2000CDCF80030C3F36C
:100D9000022E8EF00704042C28BF0424BEF10303A6
:100DA0004FF0FF3E0EFA04F438BF0023A1439940F0
:100DB0000EFA03F39A43114300F00F0200F160436F
:100DC0000901043A03F564436244002848BF02F174
:100DD0000C03197010BD00004EF60C51CEF200014C
:100DE0000A684FF6FF031A4060F30A2242F080605F
:100DF00040F0FD7008607047002804BF0120704774
:100E00002DE9F04143F60808C4F202080446D8F878
:100E1000F8030D4600F00700884207D288F8F8531F
:100E2000D8F8F80300F00700A84277D120688107BE
:100E300017D5410705D5D8F8001041F4E051C8F89E
:100E40000010010705D5D8F8001041F46041C8F83A
:100E50000010D8F80010A26821F0F0011143C8F882
:100E60000010C00740D1D8F8F80300F00700A842EE
:100E700007D988F8F853D8F8F80300F00700A8421B
:100E80004CD12068410707D5D8F80010E26821F45A
:100E9000E0511143C8F80010000708D5D8F8000049
:100EA000216920F4604040EAC100C8F8000000F069
:100EB00055F8D8F8001041F25852C1F30311C0F6AA
:100EC0000002515C40F2080220FA01F140F20400F5
:100ED000C2F200000068C2F200021160FFF7FEFEDD
:100EE0000020BDE8F08100BF6068811E022907D2A2
:100EF00058F8081C89015CBF0120BDE8F08111E0B1
:100F0000012807D158F8081C89035CBF0120BDE8FF
:100F1000F08107E058F8081C890703D40120BDE8D8
:100F2000F08100BFD8F8001021F003010843C8F891
:100F30000000FFF7A3FE064641F28837D8F800000C
:100F4000616800F00C00B0EB810F8CD0FFF796FECB
:100F5000801BB842F2D90320BDE8F08110B543F6FA
:100F60000404C4F20204606800F00C0008280BD0EE
:100F7000042819BF42F20040C0F2F40047F64000D6
:100F8000C0F27D1010BD00BF2068216823684902AF
:100F900047F64001C0F27D1100F03F02C3F3881014
:100FA0005CBF42F20041C0F2F401A1FB000100234A
:100FB000FFF770F921680222C1F3014102EB410100
:100FC000B0FBF1F010BD0000002804BF0120704705
:100FD0002DE9F04182B00446007843F60006C007D0
:100FE000C4F202060CD0B06800F00C00042840F0F7
:100FF00081803068800303D56068002800F0688134
:10100000207880071BD5B06810F00C0F09D0B068AD
:1010100000F00C00082840F087807068400200F162
:1010200083803068800703D5E068012840F0508154
:101030003068216920F0F80040EAC1003060207873
:10104000000713D4207840072AD4A569002D00F0AA
:101050003A81B06800F00C00082840F0A580012D0E
:1010600040F00E81012002B0BDE8F08160690028E7
:1010700000F082800020C4F247200121C0F8801EC9
:10108000FFF7FCFD054600BF706F8007DAD4FFF75D
:10109000F5FD401B0228F7D9032002B0BDE8F0811E
:1010A000306C5FEAC0080AD400200190306C40F038
:1010B00080503064306C00F080500190019847F20D
:1010C0000007C4F200073868C00547D4386840F408
:1010D00080703860FFF7D2FD054600BF3868C00554
:1010E0003CD4FFF7CBFD401B0228F7D9032002B008
:1010F000BDE8F081B06800F00C00082803D17068EA
:1011000040023FF576AF61683068B1F5803F07D0A7
:10111000B1F5A02F40F09A8040F480203060306814
:1011200040F4803030609AE0E068002840F200002F
:10113000C4F247205CD001210160FFF79FFD054606
:10114000306880073FF574AFFFF798FD401B022819
:10115000F6D9032002B0BDE8F08100BFA168306F6E
:10116000012905D0052955D140F004003067306FC2
:1011700040F00100306756E00020C4F24720002113
:10118000C0F8801EFFF77AFD054600BF706F80072C
:101190007FF558AFFFF772FD401B0228F6D90320F8
:1011A00002B0BDE8F08100BF0027C4F2472700204D
:1011B0003866FFF763FD022D05460DD130688001CA
:1011C00040F18A80FFF75AFD401B02284FF00300D0
:1011D000F4D902B0BDE8F0813068800173D5FFF723
:1011E0004DFD401B02284FF00300F5D9F1E700BF89
:1011F00000210160FFF742FD054600BF306880070F
:101200007FF51DAFFFF73AFD401B02284FF00300AA
:10121000F4D9DEE720F001003067306F002920F0BC
:10122000040030677AD0FFF729FD054641F2883780
:10123000306F800700F18480FFF720FD401BB8422B
:10124000F6D9032002B0BDE8F08100BF20F4803061
:1012500030603068002920F4802030607AD0FFF7B9
:101260000DFD0546306880033FF5CAAEFFF706FD69
:10127000401B6428F6D9032002B0BDE8F08100BF0E
:101280007068E16900F480028A4221D1216A00F08D
:101290003F028A421CD147F6C071626A0140B1EB3D
:1012A000821F15D1A16A4FF6FF73C903994300F459
:1012B0004032A1F580318A420AD1E16A00F07060C3
:1012C000B0EB016F04D1002002B0BDE8F08100BF97
:1012D000012002B0BDE8F08104F11C052FCD0843C8
:1012E00040EA8210D9034FF6FF729143A1F5803195
:1012F00040EA05600843706001203866FFF7BEFCD5
:10130000044600BF30688001DDD4FFF7B7FC001B46
:1013100002284FF00300F5D95BE700BFFFF7AEFCF2
:10132000054641F2883700BF306F800708D5FFF7C8
:10133000A5FC401BB8424FF00300F5D949E700BFB8
:10134000B8F1000F3FF581AE306C20F08050306472
:101350007BE600BFFFF792FC054600BF30688003C4
:101360007FF54EAEFFF78AFC401B64284FF0030068
:10137000F4D92EE7411E0020B0EB116F1CBF0120F5
:1013800070474EF21002CEF2000251604EF6235129
:10139000CEF20001F0230B700721906011607047BE
:1013A000FEE70000FEE70000FEE7000070470000D7
:1013B00070470000FFF768BC70B592B006AC2046DD
:1013C0003021FEF7DFFF002543F640000595CDE90B
:1013D0000355CDE901550095C4F2020001680226CB
:1013E00041F080510160006800F08050009000984A
:1013F00047F200000095C4F20000016841F480410A
:101400000160006800F4804000900098012009907D
:1014100010200A9008200E90A820CDE90F06042085
:10142000119020460696CDE90C65FFF7CDFD18B169
:1014300072B600BFFEE700BF0F20CDE901064FF4F2
:10144000A05004904FF48050059001A80521039509
:10145000FFF7D2FC10B172B6FEE700BF12B070BD4C
:101460004EF68850CEF20000016841F47001016030
:1014700070470000FEE7000084B0FFF713FCFFF7A1
:101480009BFF002443F630000094C4F20200016880
:10149000002241F080010160016801F080010091AB
:1014A00000990094016841F001010160016801F0B8
:1014B0000101009100990094016841F480010160EC
:1014C0000068002100F48000009000983820FFF7A9
:1014D00057FC3820FFF742FC40F2700042F2000156
:1014E0000123C2F20000C4F201010125C0F600731D
:1014F00003944FF48032057680F82040C0E90A3426
:10150000C56180F8304080E81600C0E903444561B9
:10151000FFF74CF810B172B6FEE700BF052002904D
:1015200040F27000C2F200006946CDE90045FEF7C6
:101530009BFF18B172B600BFFEE700BFFEE7F1EEF9
:10154000100A4FF6FF71C0F2C03120EA010040F0EE
:101550004070E1EE100A704700000000000000003B
:1015600001020304060708090006101600061016FB
:10157000901500080000002010000000EC01000899
:10158000A015000810000020100700000C02000841
:1015900001000000100000000024F4000000000022
:040000050800018965
:00000001FF
