:020000040800F2
:10000000C006002055020008FD110008F511000887
:10001000F911000859040008CD1200080000000082
:1000200000000000000000000000000005120008B1
:100030005D04000800000000011200080912000819
:100040006F0200086F0200086F0200086F020008CC
:100050006F0200086F0200086F0200086F020008BC
:100060006F0200086F0200086F0200086F020008AC
:100070006F0200086F0200086F0200086F0200089C
:100080006F0200086F0200084D0400086F020008AC
:100090006F0200086F0200086F0200086F0200087C
:1000A0006F0200086F0200086F0200086F0200086C
:1000B0006F0200086F0200086F0200086F0200085C
:1000C0006F0200086F0200086F0200086F0200084C
:1000D0006F0200086F0200086F0200086F0200083C
:1000E0006F0200086F0200086F0200086F0200082C
:1000F0006F0200086F0200086F0200086F0200081C
:100100006F0200086F0200086F0200086F0200080B
:100110006F0200086F0200086F0200086F020008FB
:100120006F0200086F0200086F0200086F020008EB
:100130006F0200086F0200086F0200086F020008DB
:100140006F0200086F0200086F0200086F020008CB
:100150006F0200086F0200086F0200086F020008BB
:100160006F0200086F0200086F0200086F020008AB
:100170006F0200086F0200086F0200080000000014
:100180006F0200086F02000800F002F800F052F859
:1001900014A696E8000CB244B344DA4501D100F04D
:1001A00049F8BAE80F000FA696E83000A5EB040561
:1001B00004EB0607AAEB0704A7F101074FEA1515A0
:1001C0004FEA3414A4F10104AC4201D300F032F838
:1001D00013F0010F18BFFB1A43F0010300F001F800
:1001E000DBE71847F011000010120000103A24BF9E
:1001F00078C878C1FAD8520724BF30C830C144BF8C
:1002000004680C6070470000704700000023002461
:1002100000250026103A28BF78C1FBD8520728BF16
:1002200030C148BF0B6070471FB501F0BEF81FBD5D
:1002300010B510BD00F0D0F81146FFF7F5FF01F042
:1002400047F800F0EEF803B4FFF7F2FF03BC00F04C
:10025000F5F800000948804709480047FEE7FEE737
:10026000FEE7FEE7FEE7FEE7FEE7FEE7FEE7FEE766
:1002700004480549054A064B70470000B9120008BA
:1002800089010008C0000020C0060020C002002034
:10029000C002002053EA020C00F069802DE9F04B07
:1002A0004FF00006002B1FBFB3FA83F503FA05F4E5
:1002B00024FA05F65E4012BF1643B2FA82F502FA3E
:1002C00005F4C5F120051EBF22FA05FC44EA0C0422
:1002D000203556EA044C4FEA144418BF641C4FF012
:1002E00000084FF00009904271EB030C39D300294C
:1002F00019BFB1FA81F701FA07F6B0FA80F700FAF0
:1003000007F6C7F120071EBF20FA07FC46EA0C06D5
:100310002037B6FBF4FCA7EB0507103F07F01F0BD7
:10032000CBF120062CFA06F60CFA0BFB44BFB346C1
:100330000026202FA4BF5E464FF0000B5BEA060CA0
:1003400008BF4FF0010B19EB0B0948EB0608ABFB9C
:10035000027C06FB02CC0BFB03CCC01B71EB0C0137
:10036000C1E70B46024641464846BDE8F08B13B54F
:10037000084318BF4FF0FF300146AFF30080BDE8DF
:100380001C4070474FF0000200B513469446964655
:10039000203922BFA0E80C50A0E80C50B1F1200198
:1003A000BFF4F7AF090728BFA0E80C5048BF0CC046
:1003B0005DF804EB890028BF40F8042B08BF7047A4
:1003C00048BF20F8022B11F0804F18BF00F8012B16
:1003D0007047704770477047754600F02BF8AE467F
:1003E00005006946534620F00700854618B020B541
:1003F000FFF73EFFBDE820404FF000064FF000073A
:100400004FF000084FF0000BAC46ACE8C009ACE878
:10041000C009ACE8C009ACE8C00921F007018D466D
:10042000704710B50446AFF300802046BDE8104089
:10043000FFF709BF0048704710000020014918204D
:10044000ABBEFEE7260002007047000040F27000DD
:10045000C2F2000000F0E0B8FEE7000070470000C4
:100460007047000090F83C20012A04BF022070472A
:1004700010B5026891F810C05368BCF1010F23F069
:10048000400308BF40335360D2F804C04FF6FF5317
:10049000CFF63F7303EA0C035360D2F804C0D1E9EE
:1004A000003E8C6843EA0C035360C2F824E0946277
:1004B000536823F01F0353608989536819435160BF
:1004C000002180F83C10002010BD000070B581B004
:1004D0000022009290F83C20012A03D1022001B0B2
:1004E00070BD00BFD1F800E00122BEF10A0F1FFA73
:1004F0008EFC80F83C2009D34FEA4C02036812FAC4
:100500008EF2A2F11E0403F10C0204E003680EEB6C
:100510004E0403F1100207251668A54026EA0505DA
:1005200015608D68166805FA04F434431460496850
:10053000062907D801EB81014A1F194651F8345F9B
:100540000FE000BF0C2901EB810105D8A1F12302C6
:10055000194651F8305F04E0A1F14102194651F803
:100560002C5F1F24944025EA04040C600CFA02F26C
:100570000C6842F2043CC4F2010C2243ACF5417415
:10058000A3420A603ED1BEF1120F07D1DCF8001081
:1005900041F48001CCF8001034E000BF2EF00101DE
:1005A00010292FD1DCF80010BEF1100F41F400012A
:1005B000CCF8001026D140F20801C2F2000109680F
:1005C0004DF68362C4F21B32A1FB0212910C01EBC7
:1005D0008101490000910099A1B100990139009170
:1005E000009979B1009901390091009951B10099B0
:1005F00001390091009929B10099013900910099C0
:100600000029EAD1002180F83C10002001B070BD23
:10061000704700007047000070B504460068066827
:100620004568B10717D515F0200114D0216CC90613
:1006300003D4216C41F400712164816811F0405FA2
:1006400002D1217E002969D02046FFF7E1FF206812
:100650006FF012010160710714D515F0800111D0FF
:10066000216CC90603D4216C41F4005121648168D6
:1006700011F4401F30D02046FFF7F2FE20686FF0E3
:100680000C010160F10706D015F040011CBF0168A4
:100690005FEAC17112D1B1060FD515F0806108BFB4
:1006A00070BD616C6FF0200541F00201616405606E
:1006B0002046FFF7AFFF2068056070BD206C40F456
:1006C00080302064204600F0F1F820686FF00101CE
:1006D0000160B106E1D4F0E7816B11F4401F02D054
:1006E00081684905C7D441684905C4D4816811F0BF
:1006F000405FC0D1217E0029BDD1416821F0800139
:100700004160206C20F480502064206CC005B2D47D
:10071000206C40F001002064ADE700BFC16A11F415
:10072000700F03D0816849053FF58EAF416821F015
:1007300020014160206C20F480702064206CC00493
:100740003FF582AF206C40F0010020647CE70000A0
:10075000002804BF0120704710B5016C00293DD06E
:10076000016CC90645D4016C41F202129143023179
:1007700042F204320164C4F20102116821F44031F2
:100780001160136890E812102343D0F810E0136052
:100790004A68012422F480724A604A68C0F60074F4
:1007A00042EA0E224A604A6822F040724A604A6871
:1007B00042EA0C024A608A6822F400628A60C268D7
:1007C0008B681A438A60826A8B68A24223F0706346
:1007D0008B608B6810D123F0405216E0044600F085
:1007E00067F820460021616484F83C10016CC9065A
:1007F000B9D5012153E000BF1A438A608A6822F00C
:1008000040528A60C26A8B681A438A608A6822F002
:1008100002028A608A68037E90F8204042EA43021E
:100820008A604A6884B142F400624A604A684EF2C3
:10083000000322F460424A60426ACFF6FF734C68BC
:1008400003EB4232224301E022F400624A60CA6AAA
:1008500040F2000C22F47002CA62C3694269CFF60A
:10086000F07CCC6A0CEB03532343CB628B6823F4FC
:1008700000738B6090F830308C6844EA43238B60BF
:100880008B6823F480638B608B6843EA82228A60E2
:1008900000214164026C012363F30102026400221F
:1008A00080F83C20BDE810400846704770470000C3
:1008B00080B586B042F200010068C4F20101002256
:1008C00088420592CDE903220292019202D006B03D
:1008D00080BD00BF43F630000092C4F202004369BD
:1008E00043F480734361436903F480730093009B76
:1008F0000092036843F001030360006800F0010008
:1009000000900098012001900320CDE9020201F53A
:10091000604001A900F00AF812200021002200F036
:1009200059F9122000F044F906B080BD2DE9F04FCE
:1009300083B000F1200200F13E4741F600450092ED
:1009400007F1FF77C4F2020508224FEAB726A84252
:1009500008BF072200254FF000084FF00009072EBE
:1009600038BF4FEAB72201920AE000BF09F101093E
:1009700008F10208B9F1100F05F1040500F0A2809A
:100980000F68012202FA09FE17EA0E0AEED0D1F82A
:1009900004C003220CF003077E1E02FA08F4012EA5
:1009A0006FEA040B12D88468CE6804EA0B0406FAD6
:1009B00008F634438460446824EA0E06CCF300143D
:1009C00004FA09F42643466004E000BF032F01D176
:1009D00003271EE0C6688C6806EA0B0604FA08F4D2
:1009E0002643022FC66014D16FF00302009E02EA74
:1009F000590756F807C005F01C040F220B69A240E6
:100A00002CEA0202A3401A43F251D1F804C00CF0C0
:100A10000307026807FA08F302EA0B021A431CF400
:100A2000403F0260A2D0002243F644030292C4F287
:100A300002031A6843F6004442F480421A601A68BE
:100A4000C4F2010402F480420292029A29F00302E5
:100A50004FF6084C2244CFF6FF7C52F80C3005F0DC
:100A60000C070F26BE40B343019E06FA07F73B432F
:100A700042F80C30A2684B6842EA0A0743F60C4C75
:100A8000DE0258BF22EA0A07A760C4F2010CDCF8B4
:100A900000209E0242EA0A0758BF22EA0A07CCF861
:100AA000007062689E0342EA0A0758BF22EA0A07FA
:100AB00067602268DB0342EA0A0758BF22EA0A0796
:100AC000276053E703B0BDE8F08F000040F2B800A4
:100AD000C2F200000068704740F2000040F2B80126
:100AE000C2F20000C2F2000100780A6810440860F7
:100AF0007047000080B543F60040C4F20200016870
:100B000041F400710160016841F480610160016895
:100B100041F480710160032000F088F8002000F0AB
:100B200005F800F027F8002080BD000070B540F205
:100B30000006C2F2000640F208013278C2F200015B
:100B40004FF47A730968B3FBF2F20446B1FBF2F199
:100B5000084600F039FB0F2C4FF0010508D838B9D2
:100B60004FF0FF3021460022002500F033F874607A
:100B7000284670BD82B0002043F640010190C4F2C7
:100B800002014A6842F480424A604A6802F48042A4
:100B90000192019A0090086840F08050086008684F
:100BA00000F0805000900098072002B000F03EB89E
:100BB000002848BF704700F01F01012202FA01F12E
:100BC0001C2202EAD0004EF20012CEF20002815046
:100BD0007047000010B54EF60C5CCEF2000CDCF84D
:100BE0000030C3F3022E8EF00704042C28BF042427
:100BF000BEF103034FF0FF3E0EFA04F438BF0023AA
:100C0000A14399400EFA03F39A43114300F00F02F7
:100C100000F160430901043A03F56443624400288B
:100C200048BF02F10C03197010BD00004EF60C51C4
:100C3000CEF200010A684FF6FF031A4060F30A2261
:100C400042F0806040F0FD7008607047002804BFEB
:100C5000012070472DE9F04143F60808C4F202086C
:100C60000446D8F8F8030D4600F00700884207D282
:100C700088F8F853D8F8F80300F00700A84277D1B5
:100C80002068810717D5410705D5D8F8001041F431
:100C9000E051C8F80010010705D5D8F8001041F45C
:100CA0006041C8F80010D8F80010A26821F0F001E7
:100CB0001143C8F80010C00740D1D8F8F80300F07D
:100CC0000700A84207D988F8F853D8F8F80300F0CD
:100CD0000700A8424CD12068410707D5D8F800107A
:100CE000E26821F4E0511143C8F80010000708D56C
:100CF000D8F80000216920F4604040EAC100C8F83B
:100D0000000000F055F8D8F8001041F2C432C1F3E9
:100D10000311C0F60002515C40F2080220FA01F112
:100D200040F20400C2F200000068C2F2000211604A
:100D3000FFF7FCFE0020BDE8F08100BF6068811E67
:100D4000022907D258F8081C89015CBF0120BDE8C0
:100D5000F08111E0012807D158F8081C89035CBF15
:100D60000120BDE8F08107E058F8081C890703D48A
:100D70000120BDE8F08100BFD8F8001021F0030188
:100D80000843C8F80000FFF7A1FE064641F2883785
:100D9000D8F80000616800F00C00B0EB810F8CD037
:100DA000FFF794FE801BB842F2D90320BDE8F08122
:100DB00010B543F60404C4F20204606800F00C01AC
:100DC00042F200400829C0F2F40007D0042918BFFD
:100DD00010BD41F20020C0F27A0010BD216801F080
:100DE0003F02216823684902C3F3881106D4A1FB9E
:100DF00000010023FFF74EFA07E000BF41F2002098
:100E0000C0F27A004843B0FBF2F021680222C1F33D
:100E1000014102EB4101B0FBF1F010BD002804BF1D
:100E2000012070472DE9F04182B00446007843F676
:100E30000006C007C4F202060CD0B06800F00C0037
:100E4000042840F081803068800303D56068002862
:100E500000F06881207880071BD5B06810F00C0F77
:100E600009D0B06800F00C00082840F08780706856
:100E7000400200F183803068800703D5E0680128D4
:100E800040F050813068216920F0F80040EAC1004C
:100E900030602078000713D4207840072AD4A56951
:100EA000002D00F03A81B06800F00C00082840F0F6
:100EB000A580012D40F00E81012002B0BDE8F08137
:100EC0006069002800F082800020C4F247200121E0
:100ED000C0F8801EFFF7FAFD054600BF706F80075F
:100EE000DAD4FFF7F3FD401B0228F7D9032002B044
:100EF000BDE8F081306C5FEAC0080AD400200190A0
:100F0000306C40F080503064306C00F080500190C4
:100F1000019847F20007C4F200073868C00547D4BB
:100F2000386840F480703860FFF7D0FD054600BF98
:100F30003868C0053CD4FFF7C9FD401B0228F7D92B
:100F4000032002B0BDE8F081B06800F00C00082872
:100F500003D1706840023FF576AF61683068B1F543
:100F6000803F07D0B1F5A02F40F09A8040F4802058
:100F70003060306840F4803030609AE0E0680028EB
:100F800040F20000C4F247205CD001210160FFF76D
:100F90009DFD0546306880073FF574AFFFF796FD6D
:100FA000401B0228F6D9032002B0BDE8F08100BF43
:100FB000A168306F012905D0052955D140F0040002
:100FC0003067306F40F00100306756E00020C4F217
:100FD00047200021C0F8801EFFF778FD054600BFBE
:100FE000706F80077FF558AFFFF770FD401B022838
:100FF000F6D9032002B0BDE8F08100BF0027C4F29B
:10100000472700203866FFF761FD022D05460DD108
:101010003068800140F18A80FFF758FD401B0228AC
:101020004FF00300F4D902B0BDE8F08130688001D0
:1010300073D5FFF74BFD401B02284FF00300F5D995
:10104000F1E700BF00210160FFF740FD054600BF4A
:10105000306880077FF51DAFFFF738FD401B022881
:101060004FF00300F4D9DEE720F001003067306F65
:10107000002920F0040030677AD0FFF727FD0546ED
:1010800041F28837306F800700F18480FFF71EFD42
:10109000401BB842F6D9032002B0BDE8F08100BF82
:1010A00020F4803030603068002920F480203060E7
:1010B0007AD0FFF70BFD0546306880033FF5CAAED6
:1010C000FFF704FD401B6428F6D9032002B0BDE8F9
:1010D000F08100BF7068E16900F480028A4221D18A
:1010E000216A00F03F028A421CD147F6C071626A51
:1010F0000140B1EB821F15D1A16A4FF6FF73C903FE
:10110000994300F44032A1F580318A420AD1E16A64
:1011100000F07060B0EB016F04D1002002B0BDE8B8
:10112000F08100BF012002B0BDE8F08104F11C0590
:101130002FCD084340EA8210D9034FF6FF72914346
:10114000A1F5803140EA05600843706001203866EF
:10115000FFF7BCFC044600BF30688001DDD4FFF718
:10116000B5FC001B02284FF00300F5D95BE700BF78
:10117000FFF7ACFC054641F2883700BF306F8007AF
:1011800008D5FFF7A3FC401BB8424FF00300F5D988
:1011900049E700BFB8F1000F3FF581AE306C20F099
:1011A000805030647BE600BFFFF790FC054600BF2F
:1011B000306880037FF54EAEFFF788FC401B642843
:1011C0004FF00300F4D92EE7411E0020B0EB116F61
:1011D0001CBF012070474EF21002CEF20002516097
:1011E0004EF62351CEF20001F0230B7007219060E0
:1011F00011607047FEE70000FEE70000FEE7000018
:101200007047000070470000FFF766BC70B592B0F1
:1012100006AC20463021FFF7B5F8002543F6400024
:101220000595CDE90355CDE901550095C4F20200BD
:101230000168022641F080510160006800F0805092
:101240000090009847F200000095C4F20000016889
:1012500041F480410160006800F4804000900098F3
:10126000012006904FF4803007904FF480000D90DD
:1012700008200E904FF4A870CDE90F0607201190BA
:1012800020460C96FFF7CAFD10B172B6FEE700BF0C
:101290000F20CDE901064FF4A05004904FF4805088
:1012A000059001A805210395FFF7D0FC10B172B697
:1012B000FEE700BF12B070BD4EF68850CEF20000BF
:1012C000016841F47001016070470000FEE7000012
:1012D0008AB0FFF70FFCFFF799FF002443F63000B8
:1012E0000494C4F20200016842F2000C41F0800153
:1012F00001600168012201F08001049104990494C5
:101300000168C4F2010C41F0010101600068012193
:1013100000F001000490049840F27000C2F2000056
:101320004FF48033C0F6007209940891CDE902446D
:10133000CDE90044047680F82040C0E90A24C16168
:1013400080F83040C0E900C3C0E90244C0E904416C
:10135000FFF7FEF910B172B6FEE700BF40F20020C1
:10136000C0F2800004904FF4FD60CDE9050440F226
:101370007000C2F2000004A90794FFF773F818B1D7
:1013800072B600BFFEE700BF002001210090CDE94A
:10139000011040F27000C2F200006946FFF796F8B3
:1013A00010B172B6FEE700BFFEE7F1EE100A4FF68D
:1013B000FF71C0F2C03120EA010040F04070E1EE60
:1013C000100A704700000000000000000102030442
:1013D00006070809F81300080000002010000000AC
:1013E000EC0100080814000810000020B0060000FE
:1013F0000C020008000000000100000010000000C6
:081400000024F40000000000CC
:040000050800018965
:00000001FF
