:020000040800F2
:100000007806002055020008610B0008590B000813
:100010005D0B00084D0400082D0C000800000000D6
:10002000000000000000000000000000690B000854
:100030005104000800000000650B00086D0B00086B
:100040006F0200086F0200086F0200086F020008CC
:100050006F0200086F0200086F0200086F020008BC
:100060006F0200086F0200086F0200086F020008AC
:100070006F0200086F0200086F0200086F0200089C
:100080006F0200086F0200086F0200086F0200088C
:100090006F0200086F0200086F0200086F0200087C
:1000A0006F0200086F0200086F0200086F0200086C
:1000B0006F0200086F0200086F0200086F0200085C
:1000C0006F0200086F0200086F0200086F0200084C
:1000D0006F0200086F0200086F0200086F0200083C
:1000E0006F0200086F0200086F0200086F0200082C
:1000F0006F0200086F0200086F0200086F0200081C
:100100006F0200086F0200086F0200086F0200080B
:100110006F0200086F0200086F0200086F020008FB
:100120006F0200086F0200086F0200086F020008EB
:100130006F0200086F0200086F0200086F020008DB
:100140006F0200086F0200086F0200086F020008CB
:100150006F0200086F0200086F0200086F020008BB
:100160006F0200086F0200086F0200086F020008AB
:100170006F0200086F0200086F0200080000000014
:100180006F0200086F02000800F002F800F052F859
:1001900014A696E8000CB244B344DA4501D100F04D
:1001A00049F8BAE80F000FA696E83000A5EB040561
:1001B00004EB0607AAEB0704A7F101074FEA1515A0
:1001C0004FEA3414A4F10104AC4201D300F032F838
:1001D00013F0010F18BFFB1A43F0010300F001F800
:1001E000DBE71847B40A0000D40A0000103A24BF25
:1001F00078C878C1FAD8520724BF30C830C144BF8C
:1002000004680C6070470000704700000023002461
:1002100000250026103A28BF78C1FBD8520728BF16
:1002200030C148BF0B6070471FB500F020FD1FBDF7
:1002300010B510BD00F0D0F81146FFF7F5FF00F043
:10024000F7FC00F0EEF803B4FFF7F2FF03BC00F098
:10025000F5F800000948804709480047FEE7FEE737
:10026000FEE7FEE7FEE7FEE7FEE7FEE7FEE7FEE766
:1002700004480549054A064B70470000190C000860
:10028000890100087800002078060020780200200C
:100290007802002053EA020C00F069802DE9F04B4F
:1002A0004FF00006002B1FBFB3FA83F503FA05F4E5
:1002B00024FA05F65E4012BF1643B2FA82F502FA3E
:1002C00005F4C5F120051EBF22FA05FC44EA0C0422
:1002D000203556EA044C4FEA144418BF641C4FF012
:1002E00000084FF00009904271EB030C39D300294C
:1002F00019BFB1FA81F701FA07F6B0FA80F700FAF0
:1003000007F6C7F120071EBF20FA07FC46EA0C06D5
:100310002037B6FBF4FCA7EB0507103F07F01F0BD7
:10032000CBF120062CFA06F60CFA0BFB44BFB346C1
:100330000026202FA4BF5E464FF0000B5BEA060CA0
:1003400008BF4FF0010B19EB0B0948EB0608ABFB9C
:10035000027C06FB02CC0BFB03CCC01B71EB0C0137
:10036000C1E70B46024641464846BDE8F08B13B54F
:10037000084318BF4FF0FF300146AFF30080BDE8DF
:100380001C4070474FF0000200B513469446964655
:10039000203922BFA0E80C50A0E80C50B1F1200198
:1003A000BFF4F7AF090728BFA0E80C5048BF0CC046
:1003B0005DF804EB890028BF40F8042B08BF7047A4
:1003C00048BF20F8022B11F0804F18BF00F8012B16
:1003D0007047704770477047754600F02BF8AE467F
:1003E00005006946534620F00700854618B020B541
:1003F000FFF73EFFBDE820404FF000064FF000073A
:100400004FF000084FF0000BAC46ACE8C009ACE878
:10041000C009ACE8C009ACE8C00921F007018D466D
:10042000704710B50446AFF300802046BDE8104089
:10043000FFF709BF0048704710000020014918204D
:10044000ABBEFEE72600020070470000FEE700009A
:100450007047000040F27000C2F200000068704770
:1004600040F2000040F27001C2F20000C2F200014E
:1004700000780A68104408607047000080B543F6B1
:100480000040C4F20200016841F40071016001689B
:1004900041F480610160016841F4807101600320D2
:1004A00000F076F8002000F005F800F027F80020B2
:1004B00080BD000070B540F20006C2F2000640F2B6
:1004C00008013278C2F200014FF47A730968B3FB75
:1004D000F2F20446B1FBF2F1084600F027FB0F2CC4
:1004E0004FF0010508D838B94FF0FF3021460022FF
:1004F000002500F021F87460284670BD82B000200D
:1005000043F640010190C4F202014A6842F480427D
:100510004A604A6802F480420192019A0090086899
:1005200040F080500860086800F08050009000980B
:10053000072002B000F02CB810B54EF60C5CCEF2DD
:10054000000CDCF80030C3F3022E8EF00704042CFC
:1005500028BF0424BEF103034FF0FF3E0EFA04F45B
:1005600038BF0023A14399400EFA03F39A43114385
:1005700000F00F0200F160430901043A03F56443FF
:100580006244002848BF02F10C03197010BD00003E
:100590004EF60C51CEF200010A684FF6FF031A40E6
:1005A00060F30A2242F0806040F0FD7008607047FE
:1005B000002804BF012070472DE9F04143F60808E8
:1005C000C4F202080446D8F8F8030D4600F007000C
:1005D000884207D288F8F853D8F8F80300F00700EB
:1005E000A84277D12068810717D5410705D5D8F8EB
:1005F000001041F4E051C8F80010010705D5D8F803
:10060000001041F46041C8F80010D8F80010A2684A
:1006100021F0F0011143C8F80010C00740D1D8F80C
:10062000F80300F00700A84207D988F8F853D8F873
:10063000F80300F00700A8424CD12068410707D515
:10064000D8F80010E26821F4E0511143C8F8001016
:10065000000708D5D8F80000216920F4604040EA7E
:10066000C100C8F8000000F055F8D8F8001040F6B6
:100670008842C1F30311C0F60002515C40F2080247
:1006800020FA01F140F20400C2F200000068C2F258
:1006900000021160FFF70EFF0020BDE8F08100BFEF
:1006A0006068811E022907D258F8081C89015CBFC6
:1006B0000120BDE8F08111E0012807D158F8081C9D
:1006C00089035CBF0120BDE8F08107E058F8081CF1
:1006D000890703D40120BDE8F08100BFD8F80010DD
:1006E00021F003010843C8F80000FFF7B3FE0646F7
:1006F00041F28837D8F80000616800F00C00B0EBD8
:10070000810F8CD0FFF7A6FE801BB842F2D90320E0
:10071000BDE8F08110B543F60404C4F20204606839
:1007200000F00C0142F200400829C0F2F40007D0AA
:10073000042918BF10BD41F20020C0F27A0010BD9C
:10074000216801F03F02216823684902C3F3881140
:1007500006D4A1FB00010023FFF79CFD07E000BFCA
:1007600041F20020C0F27A004843B0FBF2F0216869
:100770000222C1F3014102EB4101B0FBF1F010BDD7
:10078000002804BF012070472DE9F04182B00446E3
:10079000007843F60006C007C4F202060CD0B06829
:1007A00000F00C00042840F081803068800303D5FD
:1007B0006068002800F06881207880071BD5B06849
:1007C00010F00C0F09D0B06800F00C00082840F0C1
:1007D00087807068400200F183803068800703D50D
:1007E000E068012840F050813068216920F0F8006D
:1007F00040EAC10030602078000713D42078400719
:100800002AD4A569002D00F03A81B06800F00C00F0
:10081000082840F0A580012D40F00E81012002B093
:10082000BDE8F0816069002800F082800020C4F2F9
:1008300047200121C0F8801EFFF70CFE054600BFCF
:10084000706F8007DAD4FFF705FE401B0228F7D946
:10085000032002B0BDE8F081306C5FEAC0080AD422
:1008600000200190306C40F080503064306C00F01B
:1008700080500190019847F20007C4F200073868E1
:10088000C00547D4386840F480703860FFF7E2FD57
:10089000054600BF3868C0053CD4FFF7DBFD401BB0
:1008A0000228F7D9032002B0BDE8F081B06800F05B
:1008B0000C00082803D1706840023FF576AF6168EC
:1008C0003068B1F5803F07D0B1F5A02F40F09A8095
:1008D00040F480203060306840F4803030609AE02E
:1008E000E068002840F20000C4F247205CD00121FB
:1008F0000160FFF7AFFD0546306880073FF574AF34
:10090000FFF7A8FD401B0228F6D9032002B0BDE87E
:10091000F08100BFA168306F012905D0052955D1AC
:1009200040F004003067306F40F00100306756E05F
:100930000020C4F247200021C0F8801EFFF78AFD86
:10094000054600BF706F80077FF558AFFFF782FD47
:10095000401B0228F6D9032002B0BDE8F08100BF99
:100960000027C4F2472700203866FFF773FD022DE9
:1009700005460DD13068800140F18A80FFF76AFD9D
:10098000401B02284FF00300F4D902B0BDE8F0810B
:100990003068800173D5FFF75DFD401B02284FF0E2
:1009A0000300F5D9F1E700BF00210160FFF752FD18
:1009B000054600BF306880077FF51DAFFFF74AFD91
:1009C000401B02284FF00300F4D9DEE720F00100BD
:1009D0003067306F002920F0040030677AD0FFF7CD
:1009E00039FD054641F28837306F800700F1848079
:1009F000FFF730FD401BB842F6D9032002B0BDE836
:100A0000F08100BF20F4803030603068002920F48D
:100A1000802030607AD0FFF71DFD054630688003E6
:100A20003FF5CAAEFFF716FD401B6428F6D9032038
:100A300002B0BDE8F08100BF7068E16900F4800297
:100A40008A4221D1216A00F03F028A421CD147F636
:100A5000C071626A0140B1EB821F15D1A16A4FF6E5
:100A6000FF73C903994300F44032A1F580318A42F3
:100A70000AD1E16A00F07060B0EB016F04D1002090
:100A800002B0BDE8F08100BF012002B0BDE8F081F6
:100A900004F11C052FCD084340EA8210D9034FF61C
:100AA000FF729143A1F5803140EA05600843706010
:100AB00001203866FFF7CEFC044600BF3068800195
:100AC000DDD4FFF7C7FC001B02284FF00300F5D967
:100AD0005BE700BFFFF7BEFC054641F2883700BF69
:100AE000306F800708D5FFF7B5FC401BB8424FF0C8
:100AF0000300F5D949E700BFB8F1000F3FF581AE1B
:100B0000306C20F0805030647BE600BFFFF7A2FC21
:100B1000054600BF306880037FF54EAEFFF79AFCB4
:100B2000401B64284FF00300F4D92EE7411E00203B
:100B3000B0EB116F1CBF012070474EF21002CEF2D5
:100B4000000251604EF62351CEF20001F0230B70EB
:100B50000721906011607047FEE70000FEE700008B
:100B6000FEE700007047000070470000FFF778BC08
:100B700070B592B006AC20463021FFF703FC00258B
:100B800043F640000595CDE90355CDE901550095A3
:100B9000C4F202000168022641F080510160006841
:100BA00000F080500090009847F200000095C4F2D9
:100BB0000000016841F480410160006800F4804059
:100BC000009000980120099010200A9008200E90B3
:100BD000A820CDE90F060720119020460696CDE902
:100BE0000C65FFF7CDFD18B172B600BFFEE700BF80
:100BF0000F20CDE901064FF4A05004904FF480502F
:100C0000059001A805210395FFF7D2FC10B172B63B
:100C1000FEE700BF12B070BD4EF68850CEF2000065
:100C2000016841F47001016070470000FEE70000B8
:100C300082B0FFF723FCFFF79BFF002043F6300153
:100C40000190C4F202010A6842F080020A600A6858
:100C500002F080020192019A0090086840F00100C1
:100C60000860086800F0010000900098FEE7F1EECF
:100C7000100A4FF6FF71C0F2C03120EA010040F0C7
:100C80004070E1EE100A7047000000000000000014
:100C90000102030406070809B80C00080000002040
:100CA00010000000EC010008C80C00081000002033
:100CB000680600000C02000801000000100000009F
:080CC0000024F4000000000014
:040000050800018965
:00000001FF
